import type { BridgeTransactionType } from 'sbtc-bridge-lib' 

export const utxos_pqe8 = {
  "address": "tb1pf74xr0x574farj55t4hhfvv0vpc9mpgerasawmf5zk9suauckugqdppqe8",
  "scriptPubKey": "51204faa61bcd4f553d1ca945d6f74b18f60705d85191f61d76d34158b0e7798b710",
  "ismine": false,
  "solvable": false,
  "iswatchonly": false,
  "isscript": true,
  "iswitness": true,
  "witness_version": 1,
  "witness_program": "4faa61bcd4f553d1ca945d6f74b18f60705d85191f61d76d34158b0e7798b710",
  "ischange": false,
  "labels": [],
  "addressValidation": {
    "isvalid": true,
    "address": "tb1pf74xr0x574farj55t4hhfvv0vpc9mpgerasawmf5zk9suauckugqdppqe8",
    "scriptPubKey": "51204faa61bcd4f553d1ca945d6f74b18f60705d85191f61d76d34158b0e7798b710",
    "isscript": true,
    "iswitness": true,
    "witness_version": 1,
    "witness_program": "4faa61bcd4f553d1ca945d6f74b18f60705d85191f61d76d34158b0e7798b710"
  },
  "utxos": [
    {
      "txid": "026a1e82180b00d9e0311a4cb46baf6c05cad9aa5e8c307c4efa56ab58cf67d3",
      "vout": 1,
      "status": {
        "confirmed": true,
        "block_height": 2424740,
        "block_hash": "000000000000001789b738f20288c10984bec2ffeaadd3f4660c4118a190ed28",
        "block_time": 1679010502
      },
      "value": 8916780,
      "tx": "0200000000010134b4d20900640e3e8ec783e3ddc43ff70abb34b625fc9b31ba3b2c66d7d4bcaa0100000000ffffffff02f8240100000000006e295354314e58424b334b3559594d4436464434314d564e50334a53314741425a385452565830323350547576a93e746231706d6d6b7a6e766d30707135756e7036676575777279753266306d3878723664323239797a673265727837386e6e6b306d733438736b397336713788ac2c0f8800000000002251204faa61bcd4f553d1ca945d6f74b18f60705d85191f61d76d34158b0e7798b7100141554a98dd18410f4b1dba05bef4f9ca26fbbf9634bffbb6ac2ee923d9c43b619973a8da8b7e691fe71c97046f1a53dfd6dc1ba729fe42c3be7e504fbb51fbae6d0100000000"
    }
  ]
  }

export const utxos_yq38 = {
  "address": "tb1qn5jz67t3vmhxh02u4f9hdtx0c7g756njwxfmu30ewpvl5pe7jg7qruyq38",
  "scriptPubKey": "00209d242d797166ee6bbd5caa4b76accfc791ea6a727193be45f97059fa073e923c",
  "ismine": false,
  "solvable": false,
  "iswatchonly": false,
  "isscript": true,
  "iswitness": true,
  "witness_version": 0,
  "witness_program": "9d242d797166ee6bbd5caa4b76accfc791ea6a727193be45f97059fa073e923c",
  "ischange": false,
  "labels": [],
  "addressValidation": {
    "isvalid": true,
    "address": "tb1qn5jz67t3vmhxh02u4f9hdtx0c7g756njwxfmu30ewpvl5pe7jg7qruyq38",
    "scriptPubKey": "00209d242d797166ee6bbd5caa4b76accfc791ea6a727193be45f97059fa073e923c",
    "isscript": true,
    "iswitness": true,
    "witness_version": 0,
    "witness_program": "9d242d797166ee6bbd5caa4b76accfc791ea6a727193be45f97059fa073e923c"
  },
  "utxos": [
    {
      "txid": "72d1cebc1bb22757f549063926006f680fd5cb9e3388a214244735d8dd124533",
      "vout": 0,
      "status": {
      "confirmed": true,
      "block_height": 2430718,
      "block_hash": "000000000000001a9d9f6969e0ba4da57db66fa7f5aabb61b51161ea7ba45058",
      "block_time": 1682280082
    },
    "value": 202020,
    "tx": "020000000001013a50804b685642ec46fcf0e39f9cc0786b184865f3de11851c324126822f7c250000000000ffffffff0224150300000000002200209d242d797166ee6bbd5caa4b76accfc791ea6a727193be45f97059fa073e923c140106000000000016001434a8b0a6023c74925e988a13c52cb00c8224955502483045022100fc43ef9648e55d002572bdd6c5c4000811ddce0b9c96cf95a036fa56217372be022011fab386fb5e55640a637db30f9427e0552388dee82b8e2b3fd156c5b5f9572c012102125793e27e6f0811d4f73f0dc4b31daf9e0b1ecacdc681070308500b433e7b9400000000"
    }
  ]
}
export const utxos_nrsp = {
  "address": "tb1qxj5tpfsz836fyh5c3gfu2t9spjpzf924etnrsp",
  "scriptPubKey": "001434a8b0a6023c74925e988a13c52cb00c82249555",
  "ismine": false,
  "solvable": false,
  "iswatchonly": false,
  "isscript": false,
  "iswitness": true,
  "witness_version": 0,
  "witness_program": "34a8b0a6023c74925e988a13c52cb00c82249555",
  "ischange": false,
  "labels": [],
  "addressValidation": {
    "isvalid": true,
    "address": "tb1qxj5tpfsz836fyh5c3gfu2t9spjpzf924etnrsp",
    "scriptPubKey": "001434a8b0a6023c74925e988a13c52cb00c82249555",
    "isscript": false,
    "iswitness": true,
    "witness_version": 0,
    "witness_program": "34a8b0a6023c74925e988a13c52cb00c82249555"
  },
  "utxos": [
    {
      "txid": "72d1cebc1bb22757f549063926006f680fd5cb9e3388a214244735d8dd124533",
      "vout": 1,
      "status": {
        "confirmed": true,
        "block_height": 2430718,
        "block_hash": "000000000000001a9d9f6969e0ba4da57db66fa7f5aabb61b51161ea7ba45058",
        "block_time": 1682280082
      },
      "value": 393492,
      "tx": "020000000001013a50804b685642ec46fcf0e39f9cc0786b184865f3de11851c324126822f7c250000000000ffffffff0224150300000000002200209d242d797166ee6bbd5caa4b76accfc791ea6a727193be45f97059fa073e923c140106000000000016001434a8b0a6023c74925e988a13c52cb00c8224955502483045022100fc43ef9648e55d002572bdd6c5c4000811ddce0b9c96cf95a036fa56217372be022011fab386fb5e55640a637db30f9427e0552388dee82b8e2b3fd156c5b5f9572c012102125793e27e6f0811d4f73f0dc4b31daf9e0b1ecacdc681070308500b433e7b9400000000"
    }
  ]
}

  export const feeEstimates = {
    "feeInfo": {
      "low_fee_per_kb": 19226,
      "medium_fee_per_kb": 29679,
      "high_fee_per_kb": 44424
    }
  }

export const commitTx:BridgeTransactionType = {
  _id: "64458cd71f66c6ef1074c5bb",
  fromBtcAddress: 'tb1qxj5tpfsz836fyh5c3gfu2t9spjpzf924etnrsp',
  revealPub: 'tb1qxj5tpfsz836fyh5c3gfu2t9spjpzf924etnrsp',
  reclaimPub: 'tb1qxj5tpfsz836fyh5c3gfu2t9spjpzf924etnrsp',
  status: 2,
  tries: 0,
  mode: 'op_drop_tr',
  amount: 202020,
  requestType: 'wrap',
  wallet: 'any',
  originator: 'ST29N24XJPW2WRVF6S2JWBC3TJBGBA5EXPSC03Y0G',
  stacksAddress: 'ST29N24XJPW2WRVF6S2JWBC3TJBGBA5EXPSC03Y0G',
  sbtcWalletAddress: 'tb1p4m8lyp5m3tjfwq2288429rk7sxnp5xjqslxkvatkujtsr8kkxlgqu9r4cd',
  commitTxScript: {
    wsh: '00209d242d797166ee6bbd5caa4b76accfc791ea6a727193be45f97059fa073e923c',
    paymentType: 'wsh',
    address: 'tb1qn5jz67t3vmhxh02u4f9hdtx0c7g756njwxfmu30ewpvl5pe7jg7qruyq38',
    script: '00209d242d797166ee6bbd5caa4b76accfc791ea6a727193be45f97059fa073e923c',
    witnessScript: '1854323c1a935113b2b705cc6de6c8a5c5b07a92e0b515ddb6752251201b13a556a9ec7ba01e48c80e18e8268ae8f8d33eb61e3c80a693450ceb77f672'
  },
  updated: 1682279639292,
  btcTxid: '72d1cebc1bb22757f549063926006f680fd5cb9e3388a214244735d8dd124533',
  vout: {
    scriptpubkey: '00209d242d797166ee6bbd5caa4b76accfc791ea6a727193be45f97059fa073e923c',
    scriptpubkey_asm: 'OP_0 OP_PUSHBYTES_32 9d242d797166ee6bbd5caa4b76accfc791ea6a727193be45f97059fa073e923c',
    scriptpubkey_type: 'v0_p2wsh',
    scriptpubkey_address: 'tb1qn5jz67t3vmhxh02u4f9hdtx0c7g756njwxfmu30ewpvl5pe7jg7qruyq38',
    value: 202020
  }
}

export const txHex = '020000000001013a50804b685642ec46fcf0e39f9cc0786b184865f3de11851c324126822f7c250000000000ffffffff0224150300000000002200209d242d797166ee6bbd5caa4b76accfc791ea6a727193be45f97059fa073e923c140106000000000016001434a8b0a6023c74925e988a13c52cb00c8224955502483045022100fc43ef9648e55d002572bdd6c5c4000811ddce0b9c96cf95a036fa56217372be022011fab386fb5e55640a637db30f9427e0552388dee82b8e2b3fd156c5b5f9572c012102125793e27e6f0811d4f73f0dc4b31daf9e0b1ecacdc681070308500b433e7b9400000000'


export const btcCorePartial = 'cHNidP8BAIcCAAAAAjNFEt3YNUckFKKIM57L1Q9obwAmOQZJ9Vcnshu8ztFyAAAAAAD/////02fPWKtW+k58MIxeqtnKBWyva7RMGjHg2QALGIIeagIBAAAAAP////8BUCSLAAAAAAAiUSBPqmG81PVT0cqUXW90sY9gcF2FGR9h1200FYsOd5i3EAEAAAAAAQErJBUDAAAAAAAiACCdJC15cWbua71cqkt2rM/HkepqcnGTvkX5cFn6Bz6SPAEFPRhUMjwak1ETsrcFzG3myKXFsHqS4LUV3bZ1IlEgGxOlVqnse6AeSMgOGOgmiuj40z62HjyAppNFDOt39nIAAQDVAgAAAAE0tNIJAGQOPo7Hg+PdxD/3Crs0tiX8mzG6Oyxm19S8qgEAAAAA/////wL4JAEAAAAAAG4pU1QxTlhCSzNLNVlZTUQ2RkQ0MU1WTlAzSlMxR0FCWjhUUlZYMDIzUFR1dqk+dGIxcG1ta3pudm0wcHE1dW5wNmdldXdyeXUyZjBtOHhyNmQyMjl5emcyZXJ4NzhubmswbXM0OHNrOXM2cTeIrCwPiAAAAAAAIlEgT6phvNT1U9HKlF1vdLGPYHBdhRkfYddtNBWLDneYtxAAAAAAAQErLA+IAAAAAAAiUSBPqmG81PVT0cqUXW90sY9gcF2FGR9h1200FYsOd5i3EAEIQwFB1fD/22JqXQZRH8Ph6CNF2uTfKTag4QEOx6i4ntIQGdsabe/nPtJq6TO/OPmLxy/76qnYkKZtbwvABJtHFIX43AEAAA=='

export const btcFeeRates = {
  "feeInfo": {
      "low_fee_per_kb": 17238,
      "medium_fee_per_kb": 29922,
      "high_fee_per_kb": 44424
  }
}


// getaddressinfo tb1pf74xr0x574farj55t4hhfvv0vpc9mpgerasawmf5zk9suauckugqdppqe8
const addressInfo = {
  "address": "tb1pf74xr0x574farj55t4hhfvv0vpc9mpgerasawmf5zk9suauckugqdppqe8",
  "scriptPubKey": "51204faa61bcd4f553d1ca945d6f74b18f60705d85191f61d76d34158b0e7798b710",
  "ismine": true,
  "solvable": true,
  "desc": "tr([760ce8cf/86'/1'/0'/0/1]264bd0d3bd80ea2da383b0a2a29f53d258e05904d2279f5f223053b987a3fd56)#j4wq04cw",
  "parent_desc": "tr([760ce8cf/86'/1'/0']tpubDDQtKohNhMryjsYgQu8hsZ1BMXJWb1h4xGDZvsQV5ZK9E5QDNgp3w1h9N2XTyz6GVDmMcbAw5YU67mcGousktHxjVTx6RmqXX6GfJJrkqqh/0/*)#kqt0kevz",
  "iswatchonly": false,
  "isscript": true,
  "iswitness": true,
  "witness_version": 1,
  "witness_program": "4faa61bcd4f553d1ca945d6f74b18f60705d85191f61d76d34158b0e7798b710",
  "ischange": false,
  "timestamp": 1678030150,
  "hdkeypath": "m/86'/1'/0'/0/1",
  "hdseedid": "0000000000000000000000000000000000000000",
  "hdmasterfingerprint": "760ce8cf",
  "labels": [
    ""
  ]
}

//cHNidP8BAF4CAAAAASOxQxxrNozqPb/7mQ+xZ99lID4BrWi6LweyqANLEzi9AAAAAAD/////AacXAAAAAAAAIlEggKh0GaZLSAFwb6jUzaCd57YqG2iipw9dB2p80PH7/iMAAAAAAAEBK5sZAAAAAAAAIlEggiio2B1KjRXcaInjdDFqYGeRddZ7bZSzm4FvEIiUYBEBCKcDQI9ikQC8AhhbElUuQhD45iukpKoU00mvi0V64JgtJHlygJ17Uykj/yBIPOtvWq7R6wnHciFLHviwWKXp9XL7P2ciIINvu6bycUPQQsBAMx4VVOod7zVObj1Yve22afSi3WiqrEHAUJKbdMGgSVS3i0tgNel6XgeKWg8o7JbVR7/ums6AOsDp3AWggJx4DhsaOaG2DMX77DrIeaLj88irpBJKbyAgHQAA


const hiroPsbt = {
  "global": {
    "unsignedTx": {
      "version": 2,
      "segwitFlag": false,
      "inputs": [
        {
          "txid": "c693c22a8caf9ca83637ea67c3734e66de6916547f38d0a445008d3a6d8c6416",
          "index": 0,
          "finalScriptSig": "",
          "sequence": 4294967295
        }
      ],
      "outputs": [
        {
          "amount": "7508",
          "script": "512070647801ee86cb36db1ab41f12ed7365545c3cd51839ae6732f5a9f991142747"
        }
      ],
      "lockTime": 0
    }
  },
  "inputs": [
    {
      "nonWitnessUtxo": {
        "version": 2,
        "segwitFlag": true,
        "inputs": [
          {
            "txid": "bc3cd94ec4a45dad6f81f9ff7914de11be32636dabdeebf7ddffd16cc0fdc68c",
            "index": 0,
            "finalScriptSig": "",
            "sequence": 4294967295
          }
        ],
        "outputs": [
          {
            "amount": "8008",
            "script": "51205e94f6ea8eb7957b06a3869eb8f2aad8dcfe52e6fdf608187825a1d01036c7d1"
          },
          {
            "amount": "367396",
            "script": "0014ea2e0ac83568ab8c6a2b4e3908914546f3c53cc7"
          }
        ],
        "witnesses": [
          [
            "30440220694098941f822a9a65cd889b1be573f5cf1b792e68438fb4b1362b38827f037c022046cd83d3795e84b0a50916be3b80f0c812f3eb89d2234c3dfd1a1b559af859f901",
            "02c0642636af6947dde337b1ea2bbe9cc142ec426ffac72ff73b7dc7afa99ac912"
          ]
        ],
        "lockTime": 0
      },
      "tapLeafScript": [
        [
          {
            "version": 192,
            "internalKey": "50929b74c1a04954b78b4b6035e97a5e078a5a0f28ec96d547bfee9ace803ac0",
            "merklePath": [
              "0d351abcbf3c02fc796116394725b850c9e9440da14150a844e320f470f3e981"
            ]
          },
          "213c051aea4549ffff9845cd298947db226d875f0b8ad8cd000000001388000000007520264bd0d3bd80ea2da383b0a2a29f53d258e05904d2279f5f223053b987a3fd56acc0"
        ],
        [
          {
            "version": 192,
            "internalKey": "50929b74c1a04954b78b4b6035e97a5e078a5a0f28ec96d547bfee9ace803ac0",
            "merklePath": [
              "ab123dbf6a724c5cbd7144962bd17befb4d8f7d81ed83ddef2f9b90a84897cc6"
            ]
          },
          "2036f903d2602d826f18d57f396fcdc3d6ee251162a418b99d0a55df5b50992028acc0"
        ]
      ],
      "tapMerkleRoot": "be2ba230418e78cb508f1f434789f303f2fe3cda012206b270b4c91bba3b35c7"
    }
  ],
  "outputs": [
    {}
  ]
}