
export const DEPLOYER_PK = {
    "privateKey": "753b7cc01a1a2e86221266a154af739463fce51219d97e4f856cd7200c3bd2a601",
    "publicKey": "0390a5cac7c33fda49f70bc1b0866fa0ba7a9440d9de647fecb8132ceb76a94dfa",
    "address": "ST1PQHQKV0RJXZFY1DGX8MNSNYVE3VGZJSRTPGZGM",
    "btcAddress": "mqVnk6NPRdhntvfm4hh9vvjiRkFDUuSYsH",
    "wif": "cRWawjcDj2J28jczAtjJGKs1pzFxM6V6tJHNZp3WrYoLhr2PLMVB",
    "index": 0
}
export const pegin1:any = {
	"net": {
		"bech32": "tb",
		"pubKeyHash": 111,
		"scriptHash": 196,
		"wif": 239
	},
	"ready": true,
	"fromBtcAddress": "tb1q4zfnhnvfjupe66m4x8sg5d03cja75vfmn27xyq",
	"pegInData": {
		"stacksAddress": "ST3N4AJFZZYC4BK99H53XP8KDGXFGQ2PRSPNET8TN",
		"sbtcWalletAddress": "tb1pf74xr0x574farj55t4hhfvv0vpc9mpgerasawmf5zk9suauckugqdppqe8",
		"amount": 4203951
	},
	"addressInfo": {
		"address": "tb1q4zfnhnvfjupe66m4x8sg5d03cja75vfmn27xyq",
		"scriptPubKey": "0014a8933bcd8997039d6b7531e08a35f1c4bbea313b",
		"ismine": false,
		"solvable": false,
		"iswatchonly": false,
		"isscript": false,
		"iswitness": true,
		"witness_version": 0,
		"witness_program": "a8933bcd8997039d6b7531e08a35f1c4bbea313b",
		"ischange": false,
		"labels": [],
		"utxos": [
			{
				"tx": {
					"confirmations": 8,
					"hex": "02000000000101ec05cb28ba614407ffda5ef4cffe7e974171dfd6c6a9dee2722d4465927735d50200000000ffffffff026183000000000000944c4e54323c1a7010183fd1a76976e7b2bb67acdf57cdfe7048820000000000000000000000000000000000000000000000000000000000000000000000000000000000000000000000000000000000007576a93e746231706d6d6b7a6e766d30707135756e7036676575777279753266306d3878723664323239797a673265727837386e6e6b306d733438736b397336713788ac26a33f0000000000160014a8933bcd8997039d6b7531e08a35f1c4bbea313b02473044022020d22c0d4e002a09379098528c121039e5dfc66799988f113a2009c196036de2022065c9ff8deba6ecbde87796367f2212845aebddab22ef01a640378c18268fe4930121029b72f2be903055d83412ed75fdd69f5a58cb144dd6d03189c051cf5f073950d300000000"
				},
				"txid": "c40b8cd078aaa183c14d6e8f2fc28645f65006bde137a20035f5d427bbca151b",
				"vout": 0,
				"status": {
					"confirmed": true,
					"block_height": 2421635,
					"block_hash": "000000000000000659962c5abc3f7dfb4c3900523c389c282194d82acb9e35fe",
					"block_time": 1677419505
				},
				"value": 4205867,
			}
		]
	},
	"fees": [
		1916,
		4629,
		7826
	],
	"fee": 1916,
	"scureFee": 600,
	"dust": 500,
	"feeInfo": {
		"low_fee_per_kb": 12528,
		"medium_fee_per_kb": 30258,
		"high_fee_per_kb": 51156
	},
}

